{"abi":[{"type":"constructor","inputs":[{"name":"_globalId","type":"uint256","internalType":"uint256"}],"stateMutability":"nonpayable"},{"type":"function","name":"SetMerkleRoot","inputs":[{"name":"_projectId","type":"uint256","internalType":"uint256"},{"name":"_merkleRoot","type":"bytes32","internalType":"bytes32"}],"outputs":[],"stateMutability":"nonpayable"},{"type":"function","name":"createProject","inputs":[{"name":"_fingerprint","type":"bytes32","internalType":"bytes32"},{"name":"_owner","type":"address","internalType":"address"},{"name":"_totalSupply","type":"uint256","internalType":"uint256"}],"outputs":[],"stateMutability":"nonpayable"},{"type":"function","name":"finishProject","inputs":[{"name":"_projectId","type":"uint256","internalType":"uint256"}],"outputs":[],"stateMutability":"nonpayable"},{"type":"function","name":"getLotteryResult","inputs":[{"name":"_projectId","type":"uint256","internalType":"uint256"}],"outputs":[{"name":"","type":"tuple","internalType":"struct LotteryResult","components":[{"name":"projectId","type":"uint256","internalType":"uint256"},{"name":"magicNumber","type":"uint256","internalType":"uint256"}]}],"stateMutability":"view"},{"type":"function","name":"getParticipantInfo","inputs":[{"name":"_projectId","type":"uint256","internalType":"uint256"},{"name":"_addr","type":"address","internalType":"address"}],"outputs":[{"name":"","type":"tuple","internalType":"struct Participant","components":[{"name":"addr","type":"address","internalType":"address"},{"name":"luckyNum","type":"uint256","internalType":"uint256"}]}],"stateMutability":"view"},{"type":"function","name":"getProjectInfo","inputs":[{"name":"_projectId","type":"uint256","internalType":"uint256"}],"outputs":[{"name":"","type":"tuple","internalType":"struct Project","components":[{"name":"id","type":"uint256","internalType":"uint256"},{"name":"fingerprint","type":"bytes32","internalType":"bytes32"},{"name":"owner","type":"address","internalType":"address"},{"name":"totalSupply","type":"uint256","internalType":"uint256"},{"name":"projectStatus","type":"uint8","internalType":"enum ProjectStatus"},{"name":"merkleRoot","type":"bytes32","internalType":"bytes32"}]}],"stateMutability":"view"},{"type":"function","name":"getProjectParticipants","inputs":[{"name":"_projectId","type":"uint256","internalType":"uint256"},{"name":"_offset","type":"uint256","internalType":"uint256"},{"name":"_limit","type":"uint256","internalType":"uint256"}],"outputs":[{"name":"","type":"tuple[]","internalType":"struct Participant[]","components":[{"name":"addr","type":"address","internalType":"address"},{"name":"luckyNum","type":"uint256","internalType":"uint256"}]}],"stateMutability":"view"},{"type":"function","name":"getProjectParticipantsAmount","inputs":[{"name":"_projectId","type":"uint256","internalType":"uint256"}],"outputs":[{"name":"","type":"uint256","internalType":"uint256"}],"stateMutability":"view"},{"type":"function","name":"getProjectStatus","inputs":[{"name":"_projectId","type":"uint256","internalType":"uint256"}],"outputs":[{"name":"","type":"uint8","internalType":"enum ProjectStatus"}],"stateMutability":"view"},{"type":"function","name":"lottery","inputs":[{"name":"_projectId","type":"uint256","internalType":"uint256"}],"outputs":[],"stateMutability":"nonpayable"},{"type":"function","name":"owner","inputs":[],"outputs":[{"name":"","type":"address","internalType":"address"}],"stateMutability":"view"},{"type":"function","name":"participate","inputs":[{"name":"_projectId","type":"uint256","internalType":"uint256"},{"name":"_addr","type":"address","internalType":"address"},{"name":"_luckyNum","type":"uint256","internalType":"uint256"}],"outputs":[],"stateMutability":"nonpayable"},{"type":"function","name":"renounceOwnership","inputs":[],"outputs":[],"stateMutability":"nonpayable"},{"type":"function","name":"s_globalId","inputs":[],"outputs":[{"name":"","type":"uint256","internalType":"uint256"}],"stateMutability":"view"},{"type":"function","name":"s_pid2project","inputs":[{"name":"","type":"uint256","internalType":"uint256"}],"outputs":[{"name":"id","type":"uint256","internalType":"uint256"},{"name":"fingerprint","type":"bytes32","internalType":"bytes32"},{"name":"owner","type":"address","internalType":"address"},{"name":"totalSupply","type":"uint256","internalType":"uint256"},{"name":"projectStatus","type":"uint8","internalType":"enum ProjectStatus"},{"name":"merkleRoot","type":"bytes32","internalType":"bytes32"}],"stateMutability":"view"},{"type":"function","name":"s_projectid_lottery","inputs":[{"name":"","type":"uint256","internalType":"uint256"}],"outputs":[{"name":"projectId","type":"uint256","internalType":"uint256"},{"name":"magicNumber","type":"uint256","internalType":"uint256"}],"stateMutability":"view"},{"type":"function","name":"s_projectid_paddr_participant","inputs":[{"name":"","type":"uint256","internalType":"uint256"},{"name":"","type":"address","internalType":"address"}],"outputs":[{"name":"addr","type":"address","internalType":"address"},{"name":"luckyNum","type":"uint256","internalType":"uint256"}],"stateMutability":"view"},{"type":"function","name":"s_projectid_participants","inputs":[{"name":"","type":"uint256","internalType":"uint256"},{"name":"","type":"uint256","internalType":"uint256"}],"outputs":[{"name":"addr","type":"address","internalType":"address"},{"name":"luckyNum","type":"uint256","internalType":"uint256"}],"stateMutability":"view"},{"type":"function","name":"startProject","inputs":[{"name":"_projectId","type":"uint256","internalType":"uint256"}],"outputs":[],"stateMutability":"nonpayable"},{"type":"function","name":"transferOwnership","inputs":[{"name":"newOwner","type":"address","internalType":"address"}],"outputs":[],"stateMutability":"nonpayable"},{"type":"function","name":"verifyMerkleProof","inputs":[{"name":"_prjectId","type":"uint256","internalType":"uint256"},{"name":"proof","type":"bytes32[]","internalType":"bytes32[]"}],"outputs":[{"name":"","type":"bool","internalType":"bool"}],"stateMutability":"view"},{"type":"event","name":"MagicNumberPublished","inputs":[{"name":"projectId","type":"uint256","indexed":true,"internalType":"uint256"},{"name":"magicNumber","type":"uint256","indexed":false,"internalType":"uint256"}],"anonymous":false},{"type":"event","name":"OwnershipTransferred","inputs":[{"name":"previousOwner","type":"address","indexed":true,"internalType":"address"},{"name":"newOwner","type":"address","indexed":true,"internalType":"address"}],"anonymous":false},{"type":"event","name":"ProjectCreated","inputs":[{"name":"projectId","type":"uint256","indexed":true,"internalType":"uint256"},{"name":"fingerprint","type":"bytes32","indexed":true,"internalType":"bytes32"}],"anonymous":false},{"type":"event","name":"ProjectFinished","inputs":[{"name":"projectId","type":"uint256","indexed":true,"internalType":"uint256"}],"anonymous":false},{"type":"event","name":"ProjectStarted","inputs":[{"name":"projectId","type":"uint256","indexed":true,"internalType":"uint256"}],"anonymous":false},{"type":"error","name":"MerkleProofInvalid","inputs":[{"name":"projectId","type":"uint256","internalType":"uint256"},{"name":"sender","type":"address","internalType":"address"},{"name":"self","type":"bytes32","internalType":"bytes32"},{"name":"proof","type":"bytes32[]","internalType":"bytes32[]"}]},{"type":"error","name":"MerkleRootAlreadySet","inputs":[]},{"type":"error","name":"OffsetOutOfBounds","inputs":[]},{"type":"error","name":"OnlyProjectOwner","inputs":[]},{"type":"error","name":"OwnableInvalidOwner","inputs":[{"name":"owner","type":"address","internalType":"address"}]},{"type":"error","name":"OwnableUnauthorizedAccount","inputs":[{"name":"account","type":"address","internalType":"address"}]},{"type":"error","name":"ProjectAlreadyStarted","inputs":[]},{"type":"error","name":"ProjectNotFinished","inputs":[]},{"type":"error","name":"ProjectNotFound","inputs":[]},{"type":"error","name":"ProjectNotInProgress","inputs":[]},{"type":"error","name":"TotalSupplyZero","inputs":[]}],"bytecode":{"object":"0x608060405234801561000f575f5ffd5b5060405161229d38038061229d833981810160405281019061003191906101b7565b335f73ffffffffffffffffffffffffffffffffffffffff168173ffffffffffffffffffffffffffffffffffffffff16036100a2575f6040517f1e4fbdf70000000000000000000000000000000000000000000000000000000081526004016100999190610221565b60405180910390fd5b6100b1816100bf60201b60201c565b50806001819055505061023a565b5f5f5f9054906101000a900473ffffffffffffffffffffffffffffffffffffffff169050815f5f6101000a81548173ffffffffffffffffffffffffffffffffffffffff021916908373ffffffffffffffffffffffffffffffffffffffff1602179055508173ffffffffffffffffffffffffffffffffffffffff168173ffffffffffffffffffffffffffffffffffffffff167f8be0079c531659141344cd1fd0a4f28419497f9722a3daafe3b4186f6b6457e060405160405180910390a35050565b5f5ffd5b5f819050919050565b61019681610184565b81146101a0575f5ffd5b50565b5f815190506101b18161018d565b92915050565b5f602082840312156101cc576101cb610180565b5b5f6101d9848285016101a3565b91505092915050565b5f73ffffffffffffffffffffffffffffffffffffffff82169050919050565b5f61020b826101e2565b9050919050565b61021b81610201565b82525050565b5f6020820190506102345f830184610212565b92915050565b612056806102475f395ff3fe608060405234801561000f575f5ffd5b5060043610610135575f3560e01c8063a57d1560116100b6578063e10f37c01161007a578063e10f37c01461038b578063e4f23e61146103bb578063f2fde38b146103d7578063f62bf2de146103f3578063fabf59681461040f578063fcc01b281461043f57610135565b8063a57d1560146102bb578063ac7db523146102d7578063c1c5cb2b146102f5578063c3cff05b1461032a578063d4adf1691461035b57610135565b8063862e9f0f116100fd578063862e9f0f146101dd5780638772d2dd1461020d5780638da5cb5b1461023d5780639675c0091461025b57806399abff4b1461028b57610135565b806306300242146101395780635c402ecf146101555780636b7fd1a914610186578063715018a6146101a25780638105ddb7146101ac575b5f5ffd5b610153600480360381019061014e91906115f1565b61045b565b005b61016f600480360381019061016a919061162f565b6104cf565b60405161017d9291906116bb565b60405180910390f35b6101a0600480360381019061019b919061170c565b610528565b005b6101aa610750565b005b6101c660048036038101906101c1919061175c565b610763565b6040516101d4929190611787565b60405180910390f35b6101f760048036038101906101f291906117ae565b610783565b60405161020491906118f1565b60405180910390f35b6102276004803603810190610222919061175c565b61093c565b604051610234919061193e565b60405180910390f35b61024561097a565b6040516102529190611957565b60405180910390f35b6102756004803603810190610270919061175c565b6109a1565b60405161028291906119e3565b60405180910390f35b6102a560048036038101906102a091906119fc565b6109ca565b6040516102b29190611a67565b60405180910390f35b6102d560048036038101906102d0919061175c565b610a8f565b005b6102df610beb565b6040516102ec9190611a80565b60405180910390f35b61030f600480360381019061030a919061175c565b610bf1565b60405161032196959493929190611aa8565b60405180910390f35b610344600480360381019061033f91906119fc565b610c54565b6040516103529291906116bb565b60405180910390f35b61037560048036038101906103709190611c57565b610c9e565b6040516103829190611ccb565b60405180910390f35b6103a560048036038101906103a0919061175c565b610d3e565b6040516103b29190611a80565b60405180910390f35b6103d560048036038101906103d0919061175c565b610d5b565b005b6103f160048036038101906103ec9190611ce4565b610e9a565b005b61040d6004803603810190610408919061175c565b610f1e565b005b6104296004803603810190610424919061175c565b61105d565b6040516104369190611da6565b60405180910390f35b61045960048036038101906104549190611dbf565b61113e565b005b6104636112dd565b5f5f1b60025f8481526020019081526020015f2060050154146104b2576040517f6006d96400000000000000000000000000000000000000000000000000000000815260040160405180910390fd5b8060025f8481526020019081526020015f20600501819055505050565b6003602052815f5260405f2081815481106104e8575f80fd5b905f5260205f2090600202015f9150915050805f015f9054906101000a900473ffffffffffffffffffffffffffffffffffffffff16908060010154905082565b825f60025f8381526020019081526020015f205f015403610575576040517f4c4f68ca00000000000000000000000000000000000000000000000000000000815260040160405180910390fd5b836001600281111561058a57610589611970565b5b60025f8381526020019081526020015f206004015f9054906101000a900460ff1660028111156105bd576105bc611970565b5b146105f4576040517fb0ae00cb00000000000000000000000000000000000000000000000000000000815260040160405180910390fd5b5f60405180604001604052808673ffffffffffffffffffffffffffffffffffffffff16815260200185815250905060035f8781526020019081526020015f2081908060018154018082558091505060019003905f5260205f2090600202015f909190919091505f820151815f015f6101000a81548173ffffffffffffffffffffffffffffffffffffffff021916908373ffffffffffffffffffffffffffffffffffffffff1602179055506020820151816001015550508060045f8881526020019081526020015f205f8773ffffffffffffffffffffffffffffffffffffffff1673ffffffffffffffffffffffffffffffffffffffff1681526020019081526020015f205f820151815f015f6101000a81548173ffffffffffffffffffffffffffffffffffffffff021916908373ffffffffffffffffffffffffffffffffffffffff16021790555060208201518160010155905050505050505050565b6107586112dd565b6107615f611364565b565b6005602052805f5260405f205f91509050805f0154908060010154905082565b60605f60035f8681526020019081526020015f208054905090508084106107d6576040517f9605a01000000000000000000000000000000000000000000000000000000000815260040160405180910390fd5b5f8390508184866107e79190611e3c565b11156107fc5784826107f99190611e6f565b90505b5f8167ffffffffffffffff81111561081757610816611b1b565b5b60405190808252806020026020018201604052801561085057816020015b61083d6114dc565b8152602001906001900390816108355790505b5090505f5f90505b8281101561092e5760035f8981526020019081526020015f20818861087d9190611e3c565b8154811061088e5761088d611ea2565b5b905f5260205f2090600202016040518060400160405290815f82015f9054906101000a900473ffffffffffffffffffffffffffffffffffffffff1673ffffffffffffffffffffffffffffffffffffffff1673ffffffffffffffffffffffffffffffffffffffff16815260200160018201548152505082828151811061091657610915611ea2565b5b60200260200101819052508080600101915050610858565b508093505050509392505050565b61094461150a565b60055f8381526020019081526020015f206040518060400160405290815f82015481526020016001820154815250509050919050565b5f5f5f9054906101000a900473ffffffffffffffffffffffffffffffffffffffff16905090565b5f60025f8381526020019081526020015f206004015f9054906101000a900460ff169050919050565b6109d26114dc565b60045f8481526020019081526020015f205f8373ffffffffffffffffffffffffffffffffffffffff1673ffffffffffffffffffffffffffffffffffffffff1681526020019081526020015f206040518060400160405290815f82015f9054906101000a900473ffffffffffffffffffffffffffffffffffffffff1673ffffffffffffffffffffffffffffffffffffffff1673ffffffffffffffffffffffffffffffffffffffff168152602001600182015481525050905092915050565b610a976112dd565b805f60025f8381526020019081526020015f205f015403610ae4576040517f4c4f68ca00000000000000000000000000000000000000000000000000000000815260040160405180910390fd5b81600280811115610af857610af7611970565b5b60025f8381526020019081526020015f206004015f9054906101000a900460ff166002811115610b2b57610b2a611970565b5b14610b62576040517fe285385500000000000000000000000000000000000000000000000000000000815260040160405180910390fd5b5f610b6b611425565b90505f60405180604001604052808681526020018381525090508060055f8781526020019081526020015f205f820151815f015560208201518160010155905050847f866549e6c822e157d2b1fbce0bb661c62d3925e7ee20a0b70d93b81ac6f6fc0c83604051610bdc9190611a80565b60405180910390a25050505050565b60015481565b6002602052805f5260405f205f91509050805f015490806001015490806002015f9054906101000a900473ffffffffffffffffffffffffffffffffffffffff1690806003015490806004015f9054906101000a900460ff16908060050154905086565b6004602052815f5260405f20602052805f5260405f205f9150915050805f015f9054906101000a900473ffffffffffffffffffffffffffffffffffffffff16908060010154905082565b5f5f33604051602001610cb19190611f14565b6040516020818303038152906040528051906020012090505f610ce98460025f8881526020019081526020015f206005015484611430565b905080610d3357843383866040517f41121e87000000000000000000000000000000000000000000000000000000008152600401610d2a9493929190611fd6565b60405180910390fd5b809250505092915050565b5f60035f8381526020019081526020015f20805490509050919050565b610d636112dd565b805f60025f8381526020019081526020015f205f015403610db0576040517f4c4f68ca00000000000000000000000000000000000000000000000000000000815260040160405180910390fd5b60016002811115610dc457610dc3611970565b5b60025f8481526020019081526020015f206004015f9054906101000a900460ff166002811115610df757610df6611970565b5b14610e2e576040517fb0ae00cb00000000000000000000000000000000000000000000000000000000815260040160405180910390fd5b6002805f8481526020019081526020015f206004015f6101000a81548160ff02191690836002811115610e6457610e63611970565b5b0217905550817f5032973ebecb355d37badc06a2e7e34401c2b21eaade274aa03b3730fa18ff8a60405160405180910390a25050565b610ea26112dd565b5f73ffffffffffffffffffffffffffffffffffffffff168173ffffffffffffffffffffffffffffffffffffffff1603610f12575f6040517f1e4fbdf7000000000000000000000000000000000000000000000000000000008152600401610f099190611957565b60405180910390fd5b610f1b81611364565b50565b805f60025f8381526020019081526020015f205f015403610f6b576040517f4c4f68ca00000000000000000000000000000000000000000000000000000000815260040160405180910390fd5b610f736112dd565b5f6002811115610f8657610f85611970565b5b60025f8481526020019081526020015f206004015f9054906101000a900460ff166002811115610fb957610fb8611970565b5b14610ff0576040517f7d4e7edc00000000000000000000000000000000000000000000000000000000815260040160405180910390fd5b600160025f8481526020019081526020015f206004015f6101000a81548160ff0219169083600281111561102757611026611970565b5b0217905550817fc6103cc0479d202218c64bbfa4df30c34a1f97e64c85a5a441103a0766241e6660405160405180910390a25050565b611065611522565b60025f8381526020019081526020015f206040518060c00160405290815f820154815260200160018201548152602001600282015f9054906101000a900473ffffffffffffffffffffffffffffffffffffffff1673ffffffffffffffffffffffffffffffffffffffff1673ffffffffffffffffffffffffffffffffffffffff16815260200160038201548152602001600482015f9054906101000a900460ff16600281111561111757611116611970565b5b600281111561112957611128611970565b5b81526020016005820154815250509050919050565b6111466112dd565b5f810361117f576040517fed0f386100000000000000000000000000000000000000000000000000000000815260040160405180910390fd5b5f6040518060c0016040528060015481526020018581526020018473ffffffffffffffffffffffffffffffffffffffff1681526020018381526020015f60028111156111ce576111cd611970565b5b81526020015f5f1b81525090508060025f835f015181526020019081526020015f205f820151815f0155602082015181600101556040820151816002015f6101000a81548173ffffffffffffffffffffffffffffffffffffffff021916908373ffffffffffffffffffffffffffffffffffffffff160217905550606082015181600301556080820151816004015f6101000a81548160ff0219169083600281111561127c5761127b611970565b5b021790555060a082015181600501559050506001805f82825461129f9190611e3c565b9250508190555083815f01517f5323249ea93983a70e1acd0f3f061840514c3c76e3420fc547a57ed69cd6fd1d60405160405180910390a350505050565b6112e5611446565b73ffffffffffffffffffffffffffffffffffffffff1661130361097a565b73ffffffffffffffffffffffffffffffffffffffff161461136257611326611446565b6040517f118cdaa70000000000000000000000000000000000000000000000000000000081526004016113599190611957565b60405180910390fd5b565b5f5f5f9054906101000a900473ffffffffffffffffffffffffffffffffffffffff169050815f5f6101000a81548173ffffffffffffffffffffffffffffffffffffffff021916908373ffffffffffffffffffffffffffffffffffffffff1602179055508173ffffffffffffffffffffffffffffffffffffffff168173ffffffffffffffffffffffffffffffffffffffff167f8be0079c531659141344cd1fd0a4f28419497f9722a3daafe3b4186f6b6457e060405160405180910390a35050565b5f63499602d2905090565b5f8261143c858461144d565b1490509392505050565b5f33905090565b5f5f8290505f5f90505b8451811015611493576114848286838151811061147757611476611ea2565b5b602002602001015161149e565b91508080600101915050611457565b508091505092915050565b5f8183106114b5576114b082846114c8565b6114c0565b6114bf83836114c8565b5b905092915050565b5f825f528160205260405f20905092915050565b60405180604001604052805f73ffffffffffffffffffffffffffffffffffffffff1681526020015f81525090565b60405180604001604052805f81526020015f81525090565b6040518060c001604052805f81526020015f81526020015f73ffffffffffffffffffffffffffffffffffffffff1681526020015f81526020015f600281111561156e5761156d611970565b5b81526020015f81525090565b5f604051905090565b5f5ffd5b5f5ffd5b5f819050919050565b61159d8161158b565b81146115a7575f5ffd5b50565b5f813590506115b881611594565b92915050565b5f819050919050565b6115d0816115be565b81146115da575f5ffd5b50565b5f813590506115eb816115c7565b92915050565b5f5f6040838503121561160757611606611583565b5b5f611614858286016115aa565b9250506020611625858286016115dd565b9150509250929050565b5f5f6040838503121561164557611644611583565b5b5f611652858286016115aa565b9250506020611663858286016115aa565b9150509250929050565b5f73ffffffffffffffffffffffffffffffffffffffff82169050919050565b5f6116968261166d565b9050919050565b6116a68161168c565b82525050565b6116b58161158b565b82525050565b5f6040820190506116ce5f83018561169d565b6116db60208301846116ac565b9392505050565b6116eb8161168c565b81146116f5575f5ffd5b50565b5f81359050611706816116e2565b92915050565b5f5f5f6060848603121561172357611722611583565b5b5f611730868287016115aa565b9350506020611741868287016116f8565b9250506040611752868287016115aa565b9150509250925092565b5f6020828403121561177157611770611583565b5b5f61177e848285016115aa565b91505092915050565b5f60408201905061179a5f8301856116ac565b6117a760208301846116ac565b9392505050565b5f5f5f606084860312156117c5576117c4611583565b5b5f6117d2868287016115aa565b93505060206117e3868287016115aa565b92505060406117f4868287016115aa565b9150509250925092565b5f81519050919050565b5f82825260208201905092915050565b5f819050602082019050919050565b6118308161168c565b82525050565b61183f8161158b565b82525050565b604082015f8201516118595f850182611827565b50602082015161186c6020850182611836565b50505050565b5f61187d8383611845565b60408301905092915050565b5f602082019050919050565b5f61189f826117fe565b6118a98185611808565b93506118b483611818565b805f5b838110156118e45781516118cb8882611872565b97506118d683611889565b9250506001810190506118b7565b5085935050505092915050565b5f6020820190508181035f8301526119098184611895565b905092915050565b604082015f8201516119255f850182611836565b5060208201516119386020850182611836565b50505050565b5f6040820190506119515f830184611911565b92915050565b5f60208201905061196a5f83018461169d565b92915050565b7f4e487b71000000000000000000000000000000000000000000000000000000005f52602160045260245ffd5b600381106119ae576119ad611970565b5b50565b5f8190506119be8261199d565b919050565b5f6119cd826119b1565b9050919050565b6119dd816119c3565b82525050565b5f6020820190506119f65f8301846119d4565b92915050565b5f5f60408385031215611a1257611a11611583565b5b5f611a1f858286016115aa565b9250506020611a30858286016116f8565b9150509250929050565b604082015f820151611a4e5f850182611827565b506020820151611a616020850182611836565b50505050565b5f604082019050611a7a5f830184611a3a565b92915050565b5f602082019050611a935f8301846116ac565b92915050565b611aa2816115be565b82525050565b5f60c082019050611abb5f8301896116ac565b611ac86020830188611a99565b611ad5604083018761169d565b611ae260608301866116ac565b611aef60808301856119d4565b611afc60a0830184611a99565b979650505050505050565b5f5ffd5b5f601f19601f8301169050919050565b7f4e487b71000000000000000000000000000000000000000000000000000000005f52604160045260245ffd5b611b5182611b0b565b810181811067ffffffffffffffff82111715611b7057611b6f611b1b565b5b80604052505050565b5f611b8261157a565b9050611b8e8282611b48565b919050565b5f67ffffffffffffffff821115611bad57611bac611b1b565b5b602082029050602081019050919050565b5f5ffd5b5f611bd4611bcf84611b93565b611b79565b90508083825260208201905060208402830185811115611bf757611bf6611bbe565b5b835b81811015611c205780611c0c88826115dd565b845260208401935050602081019050611bf9565b5050509392505050565b5f82601f830112611c3e57611c3d611b07565b5b8135611c4e848260208601611bc2565b91505092915050565b5f5f60408385031215611c6d57611c6c611583565b5b5f611c7a858286016115aa565b925050602083013567ffffffffffffffff811115611c9b57611c9a611587565b5b611ca785828601611c2a565b9150509250929050565b5f8115159050919050565b611cc581611cb1565b82525050565b5f602082019050611cde5f830184611cbc565b92915050565b5f60208284031215611cf957611cf8611583565b5b5f611d06848285016116f8565b91505092915050565b611d18816115be565b82525050565b611d27816119c3565b82525050565b60c082015f820151611d415f850182611836565b506020820151611d546020850182611d0f565b506040820151611d676040850182611827565b506060820151611d7a6060850182611836565b506080820151611d8d6080850182611d1e565b5060a0820151611da060a0850182611d0f565b50505050565b5f60c082019050611db95f830184611d2d565b92915050565b5f5f5f60608486031215611dd657611dd5611583565b5b5f611de3868287016115dd565b9350506020611df4868287016116f8565b9250506040611e05868287016115aa565b9150509250925092565b7f4e487b71000000000000000000000000000000000000000000000000000000005f52601160045260245ffd5b5f611e468261158b565b9150611e518361158b565b9250828201905080821115611e6957611e68611e0f565b5b92915050565b5f611e798261158b565b9150611e848361158b565b9250828203905081811115611e9c57611e9b611e0f565b5b92915050565b7f4e487b71000000000000000000000000000000000000000000000000000000005f52603260045260245ffd5b5f8160601b9050919050565b5f611ee582611ecf565b9050919050565b5f611ef682611edb565b9050919050565b611f0e611f098261168c565b611eec565b82525050565b5f611f1f8284611efd565b60148201915081905092915050565b5f81519050919050565b5f82825260208201905092915050565b5f819050602082019050919050565b5f611f628383611d0f565b60208301905092915050565b5f602082019050919050565b5f611f8482611f2e565b611f8e8185611f38565b9350611f9983611f48565b805f5b83811015611fc9578151611fb08882611f57565b9750611fbb83611f6e565b925050600181019050611f9c565b5085935050505092915050565b5f608082019050611fe95f8301876116ac565b611ff6602083018661169d565b6120036040830185611a99565b81810360608301526120158184611f7a565b90509594505050505056fea2646970667358221220c14127f16f72c27cc1c99d8fe5e68d778f59e231d96892daaa2a0a8a770da2d264736f6c634300081e0033","linkReferences":{}},"methodIdentifiers":{"SetMerkleRoot(uint256,bytes32)":"06300242","createProject(bytes32,address,uint256)":"fcc01b28","finishProject(uint256)":"e4f23e61","getLotteryResult(uint256)":"8772d2dd","getParticipantInfo(uint256,address)":"99abff4b","getProjectInfo(uint256)":"fabf5968","getProjectParticipants(uint256,uint256,uint256)":"862e9f0f","getProjectParticipantsAmount(uint256)":"e10f37c0","getProjectStatus(uint256)":"9675c009","lottery(uint256)":"a57d1560","owner()":"8da5cb5b","participate(uint256,address,uint256)":"6b7fd1a9","renounceOwnership()":"715018a6","s_globalId()":"ac7db523","s_pid2project(uint256)":"c1c5cb2b","s_projectid_lottery(uint256)":"8105ddb7","s_projectid_paddr_participant(uint256,address)":"c3cff05b","s_projectid_participants(uint256,uint256)":"5c402ecf","startProject(uint256)":"f62bf2de","transferOwnership(address)":"f2fde38b","verifyMerkleProof(uint256,bytes32[])":"d4adf169"},"id":7}